:100000000C942A000C94E3030C9419040C944700FC
:100010000C9447000C9447000C9447000C94470044
:100020000C9447000C9447000C9494060C946B06B7
:100030000C9447000C9447000C9447000C94470024
:100040000C9484040C9447000C9447000C944700D3
:100050000C94470011241FBECFE5D8E0DEBFCDBF12
:1000600010E0A0E6B0E0EAE4FEE002C005900D92E8
:10007000AC36B107D9F720E0ACE6B0E001C01D9284
:10008000A438B207E1F70E9470020C9423070C9485
:10009000000096B7906496BF92E090B991B19E7FB0
:1000A00091B991B19D7F91B996B79F7796BF8823FB
:1000B00011F0880F82B986B7846086BF089586B72D
:1000C000806286BF86B7806886BF06B607FEFDCF12
:1000D00081B1887F883011F480E0089581E008952F
:1000E00086B7806286BF86B7806886BF06B607FE81
:1000F000FDCF81B1887F803111F480E0089582E0E6
:100100000895880F83B983B18E7F83B986B78F7DB9
:1001100086BF86B7806886BF06B607FEFDCF81B171
:10012000887F883111F480E0089583E00895880F76
:1001300083B983B1816083B986B78F7D86BF86B767
:10014000806886BF06B607FEFDCF81B1887F803408
:1001500011F480E0089584E0089583B986B780683B
:1001600086BF06B607FEFDCF81B1887F883211F4C5
:1001700080E0089585E00895FC0196B7906896BFE9
:1001800006B607FEFDCF91B1987F903521F483B17B
:10019000808380E0089586E0089586B7806186BFF9
:1001A00086B7806886BF0895982F862F40E0692F14
:1001B0000E94F5040895CF93DF931F92CDB7DEB769
:1001C000982F862FAE014F5F5F4F692F0E94E70582
:1001D00089810F90DF91CF9108951F93CF93DF9383
:1001E000D82FC62F192F10650E945F00812F0E9403
:1001F00081008D2F0E94AD008C2F0E94AD000E94C7
:10020000CD0083EC99E00197F1F700C00000DF9189
:10021000CF911F9108950F931F93CF93DF931F9258
:10022000CDB7DEB7082F192F10650E945F00812F10
:100230000E948100802F0E94AD000E947000812FDB
:100240000E949700CE0101960E94BC000E94CD0042
:1002500089810F90DF91CF911F910F910895CF93D6
:10026000C82F40E065E082E00E946E0540E064E057
:1002700082E00E946E056C2F81E00E941F0641E023
:1002800063E082E00E946E0583EF91E00197F1F751
:1002900000C0000040E063E082E00E946E05CF9164
:1002A0000895CF93C82F41E065E082E00E946E057B
:1002B00040E064E082E00E946E056C2F81E00E94C5
:1002C0001F0641E063E082E00E946E0583EF91E04B
:1002D0000197F1F700C0000040E063E082E00E9477
:1002E0006E05CF9108958FE097E20197F1F700C076
:1002F000000088E30E942F018CE00E942F0181E022
:100300000E942F0108950F931F93CF938C01C0E09B
:1003100003C00E945101CF5FF801EC0FF11D8081F5
:100320008111F7CFCF911F910F910895611106C0F0
:10033000982F20E4629F900D112401C090E061305D
:1003400029F4982F20E4629F900D112480E8890FF2
:100350000E942F01089541E060E081E00E94F504D1
:1003600041E061E081E00E94F50441E062E081E06B
:100370000E94F50441E063E081E00E94F50441E061
:1003800064E081E00E94F50441E065E081E00E94C4
:10039000F50441E066E081E00E94F50441E067E099
:1003A00081E00E94F50441E063E082E00E94F504F0
:1003B00041E064E082E00E94F50441E065E082E013
:1003C0000E94F504089581E00E942F010895CF93C3
:1003D000DF93CDB7DEB760970FB6F894DEBF0FBEE0
:1003E000CDBF4AE0BE016F5F7F4F0E94EE06CE0197
:1003F00001960E94830160960FB6F894DEBF0FBE8F
:10040000CDBFDF91CF910895982F862F41E0692FBE
:100410000E94F5040895982F862F41E0692F0E94CD
:100420006E050895982F862F40E0692F0E946E0573
:100430000895CF93DF93C82FD62F0E940B022FE988
:1004400086E891E0215080409040E1F700C0000034
:100450006D2F8C2F0E9412022FE986E891E0215027
:1004600080409040E1F700C00000DF91CF910895F7
:10047000CF93DF9300D000D0CDB7DEB780916C0072
:100480008F5F80936C00813321F580E00E947304BC
:1004900090E09C838B832B813C81A8E8B3E10E9490
:1004A000DF062FEF33E040E050E00E94BD063A83C4
:1004B000298329813A81ADECBCEC0E94DF06969538
:1004C000879596958795969587958093730010925A
:1004D0006C000F900F900F900F90DF91CF910895C7
:1004E00063E087E00E94D40063E080E00E940402A1
:1004F00063E081E00E9404020E94AB010E9473014C
:1005000080E00E9449006091610084E690E00E94D2
:10051000ED0087E690E00E940B0180936E000E9440
:1005200063040E9435060E9442060E9431060E9422
:100530004F0688E392E00E94610662E087E00E9435
:10054000DB0081110BC00E94E30163E080E00E94A8
:10055000120263E081E00E941202EFCF62E087E0C6
:100560000E94DB00813049F763E00E940B020E9489
:10057000E30184E690E00E9483018091730090E0A3
:100580000E94E70180917500811181C080916E0009
:100590008F3F09F07CC090917300409161009417E7
:1005A00040F480916D00811104C063E00E94190243
:1005B000C4CF491740F480916D00811104C063E0FD
:1005C0000E940B02BACF9413B8CF109274000DC0E2
:1005D0002091710030917200290F311D309372000B
:1005E000209371008F5F80937400809174008A3033
:1005F00078F32091710030917200ADECBCEC0E9458
:10060000DF0696958795969587959695879590930D
:10061000700080936F00242F30E08217930709F059
:100620008CCF16C081E080936D0088E392E00E9439
:1006300061060E94E30184E690E00E9483018091BC
:10064000730090E00E94E70180916E008F3F81F47B
:100650002091730030E08091610090E0AC01455042
:1006600051094217530724F4059628173907D4F285
:1006700010926D0063E080E00E94120210927200FE
:10068000109271001092700010926F0056CF8091FE
:100690006E008F3F09F451CF8093600061E080E0ED
:1006A0000E94960184E690E00E94830180916E0092
:1006B00090E00E94E7019091730080916E0098177E
:1006C00038F480916D00811103C063E00E9419022B
:1006D0009091730040916E00491740F480916D0035
:1006E000811104C063E00E940B0227CF941325CF31
:1006F000109274000DC02091710030917200290F8A
:10070000311D30937200209371008F5F80937400CD
:10071000809174008A3078F32091710030917200DA
:10072000ADECBCEC0E94DF06969587959695879573
:10073000969587959093700080936F00242F30E0FA
:100740008217930709F0F9CE63E080E00E9412025D
:100750001FC00E94E30181E080936D0088E392E076
:100760000E94610684E690E00E94830180917300FC
:1007700090E00E94E70161E080E00E94960184E63B
:1007800090E00E94830180916E0090E00E94E7015A
:1007900020916E0030E08091730090E0AC014550F4
:1007A00051094217530724F40596281739078CF28C
:1007B00010927200109271001092700010926F00EF
:1007C00010926D00BACE1F920F920FB60F921124A5
:1007D0002F933F934F935F936F937F938F939F9349
:1007E000AF93BF93EF93FF9363E670E080E690E0F2
:1007F0000E944F04609160006093750087E690E06E
:100800000E94ED0087E690E00E940B0180936E004D
:10081000FF91EF91BF91AF919F918F917F916F91D8
:100820005F914F913F912F910F900FBE0F901F90AE
:1008300018951F920F920FB60F9211242F933F938A
:100840004F935F936F937F938F939F93AF93BF93D8
:10085000EF93FF9362E670E080E690E00E94590417
:10086000609160006093750087E690E00E94ED0063
:1008700087E690E00E940B0180936E00FF91EF915C
:10088000BF91AF919F918F917F916F915F914F91A8
:100890003F912F910F900FBE0F901F901895FC0164
:1008A00090819B5F9083DB018C91981708F0808387
:1008B0000895FC01908195509083DB018C918917FC
:1008C00008F08083089587B1806487B987B18F77F6
:1008D00087B986B1887F86B986B1836086B986B1CB
:1008E000806886B9089597B1907E97B997B1892BA2
:1008F00087B986B1806486B9349BFECF86B18061AA
:1009000086B984B195B108951F920F920FB60F92D8
:1009100011242F933F934F935F936F937F938F9304
:100920009F93AF93BF93EF93FF93809183008111C7
:1009300015C0E0917D00F0917E0085B190E091833B
:10094000808310927C0086B1877F86B9E0917A001F
:10095000F0917B003097C1F1099536C08091770006
:10096000E82FF0E0EE0FFF1F20917D0030917E0018
:10097000E20FF31F24B135B1318320838F5F809361
:1009800077009091760089130DC010927C0086B19B
:10099000877F86B9E0917A00F0917B003097A1F0D3
:1009A000099512C087B1807E87B997B18091770091
:1009B000E0917800F0917900E80FF11D8081892B9A
:1009C00087B986B1806486B9FF91EF91BF91AF91ED
:1009D0009F918F917F916F915F914F913F912F9157
:1009E0000F900FBE0F901F901895683008F075C0DB
:1009F000843008F072C04130B9F5813091F028F0B0
:100A00008230D9F0833029F12FC09AB321E030E051
:100A1000062E02C0220F331F0A94E2F7292B2ABBAD
:100A200023C097B321E030E0062E02C0220F331F0F
:100A30000A94E2F7292B27BB17C094B321E030E0DA
:100A4000062E02C0220F331F0A94E2F7292B24BB83
:100A50000BC091B321E030E0062E02C0220F331FFD
:100A60000A94E2F7292B21BB411137C0813091F064
:100A700028F08230D9F0833029F108952AB381E03B
:100A800090E002C0880F991F6A95E2F78095822353
:100A90008ABB089527B381E090E002C0880F991FB8
:100AA0006A95E2F78095822387BB089524B381E09D
:100AB00090E002C0880F991F6A95E2F78095822323
:100AC00084BB089521B381E090E002C0880F991F94
:100AD0006A95E2F78095822381BB0895843008F0FF
:100AE00075C0683008F072C041113BC0813099F088
:100AF00028F08230E9F0833041F133C09BB321E02C
:100B000030E0062E02C0220F331F0A94E2F7209530
:100B100029232BBB26C098B321E030E0062E02C06B
:100B2000220F331F0A94E2F72095292328BB19C00E
:100B300095B321E030E0062E02C0220F331F0A9445
:100B4000E2F72095292325BB0CC092B321E030E0C9
:100B5000062E02C0220F331F0A94E2F720952923A4
:100B600022BB413099F5813089F028F08230C9F0FC
:100B7000833011F108952BB381E090E002C0880F1B
:100B8000991F6A95E2F7822B8BBB089528B381E009
:100B900090E002C0880F991F6A95E2F7822B88BB0C
:100BA000089525B381E090E002C0880F991F6A95EF
:100BB000E2F7822B85BB089522B381E090E002C06A
:100BC000880F991F6A95E2F7822B82BB08958430C3
:100BD000A8F5683098F5813089F028F08230C9F0A6
:100BE000833011F1089589B390E002C095958795FF
:100BF0006A95E2F78170FA018083089586B390E0E8
:100C000002C0959587956A95E2F78170FA01808315
:100C1000089583B390E002C0959587956A95E2F7B1
:100C20008170FA018083089580B390E002C09595A9
:100C300087956A95E2F78170FA0180830895843080
:100C400078F4813041F028F0823039F0833039F087
:100C500008956BBB089568BB089565BB089562BB9A
:100C600008958FB780688FBF089585B7816085BF6D
:100C700085B7826085BF8AB780648ABF8BB780647E
:100C80008BBF089585B7846085BF85B7886085BFB1
:100C90008AB780688ABF8BB780688BBF089583B797
:100CA0008F7B83BF83B7877F83BF8CE282BF89B787
:100CB000816089BF83B7887F83BF83B7826083BF2A
:100CC0000895009731F0909382008093810082E034
:100CD000089584E008951F920F920FB60F92112489
:100CE0002F933F934F935F936F937F938F939F9334
:100CF000AF93BF93EF93FF93E0918100F091820057
:100D0000309709F00995FF91EF91BF91AF919F91B5
:100D10008F917F916F915F914F913F912F910F90A4
:100D20000FBE0F901F9018951F920F920FB60F9243
:100D300011242F933F934F935F936F937F938F93E0
:100D40009F93AF93BF93EF93FF93E0917F00F09158
:100D50008000309709F00995FF91EF91BF91AF9115
:100D60009F918F917F916F915F914F913F912F91C3
:100D70000F900FBE0F901F901895A1E21A2EAA1B7C
:100D8000BB1BFD010DC0AA1FBB1FEE1FFF1FA2173B
:100D9000B307E407F50720F0A21BB30BE40BF50B38
:100DA000661F771F881F991F1A9469F760957095C1
:100DB000809590959B01AC01BD01CF010895A29F44
:100DC000B001B39FC001A39F700D811D1124911D1F
:100DD000B29F700D811D1124911D0895BB274A30CB
:100DE00031F4992322F4BDE2909581959F4F0C94A4
:100DF000FA06BB27FB015527AA27880F991FAA1FB0
:100E0000A41710F0A41B83955051B9F7A05DAA3325
:100E100008F0A95DA193009779F7B111B1931192F0
:100E2000CB010C941307DC01FC01672F7191772330
:100E3000E1F7329704C07C916D9370836291AE1795
:0A0E4000BF07C8F30895F894FFCF30
:0C0E4A001E3C234B74656D703A200000C4
:00000001FF
